{
  "contractName": "MyWallet",
  "abi": [
    {
      "constant": false,
      "inputs": [
        {
          "name": "_to",
          "type": "address"
        },
        {
          "name": "_value",
          "type": "uint256"
        },
        {
          "name": "_reason",
          "type": "string"
        }
      ],
      "name": "spendMoneyOn",
      "outputs": [
        {
          "name": "proposal_id",
          "type": "uint256"
        }
      ],
      "payable": false,
      "stateMutability": "nonpayable",
      "type": "function"
    },
    {
      "constant": false,
      "inputs": [],
      "name": "kill",
      "outputs": [],
      "payable": false,
      "stateMutability": "nonpayable",
      "type": "function"
    },
    {
      "constant": true,
      "inputs": [],
      "name": "owner",
      "outputs": [
        {
          "name": "",
          "type": "address"
        }
      ],
      "payable": false,
      "stateMutability": "view",
      "type": "function"
    },
    {
      "constant": false,
      "inputs": [
        {
          "name": "_proposalId",
          "type": "uint256"
        }
      ],
      "name": "confirmProposal",
      "outputs": [
        {
          "name": "",
          "type": "bool"
        }
      ],
      "payable": false,
      "stateMutability": "nonpayable",
      "type": "function"
    },
    {
      "inputs": [],
      "payable": true,
      "stateMutability": "payable",
      "type": "constructor"
    },
    {
      "payable": true,
      "stateMutability": "payable",
      "type": "fallback"
    },
    {
      "anonymous": false,
      "inputs": [
        {
          "indexed": true,
          "name": "_from",
          "type": "address"
        },
        {
          "indexed": false,
          "name": "_amount",
          "type": "uint256"
        }
      ],
      "name": "LogReceivedFunds",
      "type": "event"
    },
    {
      "anonymous": false,
      "inputs": [
        {
          "indexed": true,
          "name": "_id",
          "type": "uint256"
        },
        {
          "indexed": true,
          "name": "_from",
          "type": "address"
        },
        {
          "indexed": true,
          "name": "_to",
          "type": "address"
        },
        {
          "indexed": false,
          "name": "_reason",
          "type": "string"
        }
      ],
      "name": "LogProposalReceived",
      "type": "event"
    },
    {
      "anonymous": false,
      "inputs": [
        {
          "indexed": true,
          "name": "_from",
          "type": "address"
        },
        {
          "indexed": true,
          "name": "_to",
          "type": "address"
        },
        {
          "indexed": false,
          "name": "_reason",
          "type": "string"
        }
      ],
      "name": "LogProposalConfirmed",
      "type": "event"
    }
  ],
  "bytecode": "0x6060604052336000806101000a81548173ffffffffffffffffffffffffffffffffffffffff021916908373ffffffffffffffffffffffffffffffffffffffff1602179055506109ff806100536000396000f300606060405260043610610062576000357c0100000000000000000000000000000000000000000000000000000000900463ffffffff168063192997e7146100bc57806341c0e1b5146101555780638da5cb5b1461016a578063f4a4f4d2146101bf575b60003411156100ba573373ffffffffffffffffffffffffffffffffffffffff167f81d2c188629cc4a1c694d285150cb5fa3dde3157a2684460d3ac7a1e331f6164346040518082815260200191505060405180910390a25b005b34156100c757600080fd5b61013f600480803573ffffffffffffffffffffffffffffffffffffffff1690602001909190803590602001909190803590602001908201803590602001908080601f016020809104026020016040519081016040528093929190818152602001838380828437820191505050505050919050506101fa565b6040518082815260200191505060405180910390f35b341561016057600080fd5b61016861056a565b005b341561017557600080fd5b61017d6105ff565b604051808273ffffffffffffffffffffffffffffffffffffffff1673ffffffffffffffffffffffffffffffffffffffff16815260200191505060405180910390f35b34156101ca57600080fd5b6101e06004808035906020019091905050610624565b604051808215151515815260200191505060405180910390f35b60008060009054906101000a900473ffffffffffffffffffffffffffffffffffffffff1673ffffffffffffffffffffffffffffffffffffffff163373ffffffffffffffffffffffffffffffffffffffff161415610296578373ffffffffffffffffffffffffffffffffffffffff166108fc849081150290604051600060405180830381858888f19350505050151561029157600080fd5b610563565b60016000815480929190600101919050555060a0604051908101604052803373ffffffffffffffffffffffffffffffffffffffff1681526020018573ffffffffffffffffffffffffffffffffffffffff1681526020018481526020018381526020016000151581525060026000600154815260200190815260200160002060008201518160000160006101000a81548173ffffffffffffffffffffffffffffffffffffffff021916908373ffffffffffffffffffffffffffffffffffffffff16021790555060208201518160010160006101000a81548173ffffffffffffffffffffffffffffffffffffffff021916908373ffffffffffffffffffffffffffffffffffffffff1602179055506040820151816002015560608201518160030190805190602001906103c892919061092e565b5060808201518160040160006101000a81548160ff021916908315150217905550905050600154905060026000600154815260200190815260200160002060010160009054906101000a900473ffffffffffffffffffffffffffffffffffffffff1673ffffffffffffffffffffffffffffffffffffffff1660026000600154815260200190815260200160002060000160009054906101000a900473ffffffffffffffffffffffffffffffffffffffff1673ffffffffffffffffffffffffffffffffffffffff166001547fa1cf13804309128492d3f2f355c836e1774eaa1870c484cb4b4401c288ceb73760026000600154815260200190815260200160002060030160405180806020018281038252838181546001816001161561010002031660029004815260200191508054600181600116156101000203166002900480156105545780601f1061052957610100808354040283529160200191610554565b820191906000526020600020905b81548152906001019060200180831161053757829003601f168201915b50509250505060405180910390a45b9392505050565b6000809054906101000a900473ffffffffffffffffffffffffffffffffffffffff1673ffffffffffffffffffffffffffffffffffffffff163373ffffffffffffffffffffffffffffffffffffffff161415156105c557600080fd5b6000809054906101000a900473ffffffffffffffffffffffffffffffffffffffff1673ffffffffffffffffffffffffffffffffffffffff16ff5b6000809054906101000a900473ffffffffffffffffffffffffffffffffffffffff1681565b6000806000809054906101000a900473ffffffffffffffffffffffffffffffffffffffff1673ffffffffffffffffffffffffffffffffffffffff163373ffffffffffffffffffffffffffffffffffffffff1614151561068257600080fd5b600260008481526020019081526020016000209050600073ffffffffffffffffffffffffffffffffffffffff168160000160009054906101000a900473ffffffffffffffffffffffffffffffffffffffff1673ffffffffffffffffffffffffffffffffffffffff16141580156107495750600073ffffffffffffffffffffffffffffffffffffffff168160010160009054906101000a900473ffffffffffffffffffffffffffffffffffffffff1673ffffffffffffffffffffffffffffffffffffffff1614155b15610927578060040160009054906101000a900460ff1615156109265760018160040160006101000a81548160ff0219169083151502179055508060010160009054906101000a900473ffffffffffffffffffffffffffffffffffffffff1673ffffffffffffffffffffffffffffffffffffffff166108fc82600201549081150290604051600060405180830381858888f1935050505015156107eb57600080fd5b8060010160009054906101000a900473ffffffffffffffffffffffffffffffffffffffff1673ffffffffffffffffffffffffffffffffffffffff168160000160009054906101000a900473ffffffffffffffffffffffffffffffffffffffff1673ffffffffffffffffffffffffffffffffffffffff167f86aac91e01cf1c07731ad9e6a567a22f90116d2a5461344b79c8d84d53669d3683600301604051808060200182810382528381815460018160011615610100020316600290048152602001915080546001816001161561010002031660029004801561090f5780601f106108e45761010080835404028352916020019161090f565b820191906000526020600020905b8154815290600101906020018083116108f257829003601f168201915b50509250505060405180910390a360019150610928565b5b5b50919050565b828054600181600116156101000203166002900490600052602060002090601f016020900481019282601f1061096f57805160ff191683800117855561099d565b8280016001018555821561099d579182015b8281111561099c578251825591602001919060010190610981565b5b5090506109aa91906109ae565b5090565b6109d091905b808211156109cc5760008160009055506001016109b4565b5090565b905600a165627a7a723058205dfdd47213a456496bdd6b3892b9323ff5af43a840e9bf5d58911fda1789f2a30029",
  "source": "pragma solidity ^0.4.17;\n\n//  owned\ncontract owned {\n  address public owner;\n\n  modifier onlyOwner() {\n    require(msg.sender == owner);\n    _;\n  }\n\n  function owned() public {\n    owner = msg.sender;\n  }\n}\n\n\n//  mortal\ncontract mortal is owned {\n  function kill() public onlyOwner {\n    selfdestruct(owner);\n  }\n}\n\n\n//  MyWallet\ncontract MyWallet is mortal {\n\n  struct Proposal {\n    address from;\n    address to;\n    uint value;\n    string reason;\n    bool sent;\n  }\n\n  uint private proposalCounter;\n  mapping (uint => Proposal) private proposals;\n\n  //  events\n  event LogReceivedFunds(address indexed _from, uint _amount);\n  event LogProposalReceived(uint indexed _id, address indexed _from, address indexed _to, string _reason);\n  event LogProposalConfirmed(address indexed _from, address indexed _to, string _reason);\n\n  function MyWallet() payable public {\n\n  }\n\n  function() public payable {\n    if(msg.value > 0) {\n      LogReceivedFunds(msg.sender, msg.value);\n    }\n  }\n\n  function confirmProposal(uint _proposalId) public onlyOwner returns (bool) {\n    Proposal storage proposal = proposals[_proposalId];\n\n    if (proposal.from != address(0) && proposal.to != address(0)) {\n      if (!proposal.sent) {\n        proposal.sent = true;\n        proposal.to.transfer(proposal.value);\n        LogProposalConfirmed(proposal.from, proposal.to, proposal.reason);\n\n        return true;\n      }\n    }\n  }\n\n  function spendMoneyOn(address _to, uint _value, string _reason) public returns (uint proposal_id) {\n    if(msg.sender == owner) {\n      _to.transfer(_value);\n    } else {\n      proposalCounter++;\n      proposals[proposalCounter] = Proposal(msg.sender, _to, _value, _reason, false);\n      proposal_id = proposalCounter;\n\n      LogProposalReceived(proposalCounter, proposals[proposalCounter].from, proposals[proposalCounter].to, proposals[proposalCounter].reason);\n    }\n  }\n}\n",
  "sourcePath": "/Users/vanijatko/Documents/projects/study/ethereum/shared_wallet/contracts/MyWallet.sol",
  "compiler": {
    "name": "solc",
    "version": "0.4.18+commit.9cf6e910.Emscripten.clang"
  },
  "schemaVersion": "1.0.1",
  "updatedAt": "2017-11-28T10:39:33.693Z"
}