{
  "contractName": "owned",
  "abi": [
    {
      "constant": true,
      "inputs": [],
      "name": "owner",
      "outputs": [
        {
          "name": "",
          "type": "address"
        }
      ],
      "payable": false,
      "stateMutability": "view",
      "type": "function"
    },
    {
      "inputs": [],
      "payable": false,
      "stateMutability": "nonpayable",
      "type": "constructor"
    }
  ],
  "bytecode": "0x6060604052341561000f57600080fd5b336000806101000a81548173ffffffffffffffffffffffffffffffffffffffff021916908373ffffffffffffffffffffffffffffffffffffffff16021790555060e78061005d6000396000f300606060405260043610603f576000357c0100000000000000000000000000000000000000000000000000000000900463ffffffff1680638da5cb5b146044575b600080fd5b3415604e57600080fd5b60546096565b604051808273ffffffffffffffffffffffffffffffffffffffff1673ffffffffffffffffffffffffffffffffffffffff16815260200191505060405180910390f35b6000809054906101000a900473ffffffffffffffffffffffffffffffffffffffff16815600a165627a7a7230582074ffd6694b89bdf9070c391dc56e486d495d55563896c836c0861713a10dc5c90029",
  "source": "pragma solidity ^0.4.17;\n\n//  owned\ncontract owned {\n  address public owner;\n\n  modifier onlyOwner() {\n    require(msg.sender == owner);\n    _;\n  }\n\n  function owned() public {\n    owner = msg.sender;\n  }\n}\n\n\n//  mortal\ncontract mortal is owned {\n  function kill() public onlyOwner {\n    selfdestruct(owner);\n  }\n}\n\n\n//  MyWallet\ncontract MyWallet is mortal {\n\n  struct Proposal {\n    address from;\n    address to;\n    uint value;\n    string reason;\n    bool sent;\n  }\n\n  uint private proposalCounter;\n  mapping (uint => Proposal) private proposals;\n\n  //  events\n  event LogReceivedFunds(address indexed _from, uint _amount);\n  event LogProposalReceived(address indexed _from, address indexed _to, string _reason);\n  event LogProposalConfirmReceived(uint _proposalId, address indexed _from, address indexed _to, string _reason);\n  event LogProposalConfirmReceivedAndPassed(uint _proposalId, address indexed _from, address indexed _to, string _reason);\n\n  function MyWallet() payable public {\n\n  }\n\n  function() public payable {\n    if(msg.value > 0) {\n      LogReceivedFunds(msg.sender, msg.value);\n    }\n  }\n\n  function confirmProposal(uint _proposalId) public onlyOwner returns (bool s) {\n    Proposal storage proposal = proposals[_proposalId];\n    \n    LogProposalConfirmReceived(_proposalId, proposal.from, proposal.to, proposal.reason);\n\n    // if (proposal.from != address(0) && proposal.to != address(0)) {\n      if (!proposal.sent) {\n        proposal.sent = true;\n        proposal.to.transfer(proposal.value);\n        LogProposalConfirmReceivedAndPassed(_proposalId, proposal.from, proposal.to, proposal.reason);\n\n        return true;\n      }\n    // }\n  }\n\n  function spendMoneyOn(address _to, uint _value, string _reason) public returns (uint proposal_id) {\n    if(msg.sender == owner) {\n      _to.transfer(_value);\n    } else {\n      proposalCounter++;\n      proposals[proposalCounter] = Proposal(msg.sender, _to, _value, _reason, false);\n      proposal_id = proposalCounter;\n\n      LogProposalReceived(proposals[proposalCounter].from, proposals[proposalCounter].to, proposals[proposalCounter].reason);\n    }\n  }\n}\n",
  "sourcePath": "/Users/vanijatko/Documents/projects/study/ethereum/shared_wallet/contracts/MyWallet.sol",
  "compiler": {
    "name": "solc",
    "version": "0.4.18+commit.9cf6e910.Emscripten.clang"
  },
  "schemaVersion": "1.0.1",
  "updatedAt": "2017-11-27T12:56:05.271Z"
}